:020000040001F9
:10C000007868002049C6010051C6010053C60100EE
:10C0100055C6010057C6010059C6010000000000C6
:10C020000000000000000000000000005BC60100EE
:10C030005DC60100000000005FC6010061C601008E
:10C0400063C6010063C60100FDCD010031CB0100D4
:10C0500063C6010063C601007DC8010075CA010006
:10C06000D5CD0100E9CD010063C6010063C6010022
:10C0700063C6010063C6010063C6010063C6010018
:10C0800063C6010051CA010063C6010063C6010016
:10C0900041CB010063C6010045CB010063C601002E
:10C0A00063C6010063C6010063C6010063C60100E8
:10C0B00063C6010063C6010000000000000000002C
:10C0C00063C6010063C6010063C6010063C60100C8
:10C0D00063C6010063C6010063C6010000000000E2
:10C0E0000000000000000000000000000000000050
:10C0F0000000000000000000000000000000000040
:10C10000000000000000000000000000000000002F
:10C11000000000000000000000000000000000001F
:10C4000000F002F800F05CF80AA090E8000C82440A
:10C410008344AAF10107DA4501D100F051F8AFF2E7
:10C42000090EBAE80F0013F0010F18BFFB1A43F012
:10C4300001031847444B0000644B00000A444FF0CE
:10C44000000C10F8013B13F0070408BF10F8014B73
:10C450001D1108BF10F8015B641E05D010F8016BB8
:10C46000641E01F8016BF9D113F0080F1EBF10F81C
:10C47000014BAD1C0C1B09D16D1E58BF01F801CB3F
:10C48000FAD505E014F8016B01F8016B6D1EF9D5C2
:10C490009142D6D3704700000023002400250026D7
:10C4A000103A28BF78C1FBD8520728BF30C148BF17
:10C4B0000B6070471FB504F01DFD1FBD10B510BD0A
:10C4C00000F0A2F91146FFF7F5FF02F01DFB00F0A6
:10C4D000C0F903B4FFF7F2FF03BC00F0C7F9000096
:10C4E000401E00BF00BF00BF00BF00BF00BF00BFB5
:10C4F00000BF00BF00BF00BF00BF00BF00BF00BF44
:10C5000000BF00BF00BF00BF00BF00BF00BF00BF33
:10C5100000BF00BF00BF00BF00BF00BF00BF00BF23
:10C5200000BF00BF00BF00BF00BF00BF00BF00BF13
:10C5300000BF00BF00BF00BF00BF00BF00BF00BF03
:10C5400000BF00BF00BF00BF00BF00BF00BF00BFF3
:10C5500000BFC5D170470000401E00BF00BF00BF34
:10C5600000BF00BF00BF00BF00BF00BF00BF00BFD3
:10C5700000BF00BF00BF00BF00BF00BF00BF00BFC3
:10C5800000BF00BF00BF00BF00BF00BF00BF00BFB3
:10C5900000BF00BF00BF00BF00BF00BF00BF00BFA3
:10C5A00000BF00BF00BF00BF00BF00BF00BF00BF93
:10C5B00000BF00BF00BF00BF00BF00BF00BF00BF83
:10C5C00000BF00BF00BF00BF00BFC5D17047000063
:10C5D000401E00BF00BF00BF00BF00BF00BF00BFC4
:10C5E00000BF00BF00BF00BF00BF00BF00BF00BF53
:10C5F00000BF00BF00BF00BF00BF00BF00BF00BF43
:10C6000000BF00BF00BF00BF00BF00BF00BF00BF32
:10C6100000BF00BF00BF00BF00BF00BF00BF00BF22
:10C6200000BF00BF00BF00BF00BF00BF00BF00BF12
:10C6300000BF00BF00BF00BF00BF00BF00BF00BF02
:10C6400000BFC5D17047000009488047094800472E
:10C65000FEE7FEE7FEE7FEE7FEE7FEE7FEE7FEE7B2
:10C66000FEE7FEE704480549054A064B704700000F
:10C6700069CB010001C401007828002078680020FF
:10C68000784800207848002010B5431C02E010F8DC
:10C69000011B71B18107FAD14FF0013202C88C1A27
:10C6A0008C4314EAC211F9D0C01A0A0603D0C01E86
:10C6B00010BDC01A10BD0A0401D0801E10BD0902B1
:10C6C000FCD0401E10BD032A40F2308010F0030C55
:10C6D00000F0158011F8013BBCF1020F624498BFD5
:10C6E00011F801CB00F8013B38BF11F8013BA2F172
:10C6F000040298BF00F801CB38BF00F8013B11F0ED
:10C70000030300F02580083AC0F0088051F8043B8C
:10C71000083A51F804CBA0E80810F5E7121D5CBFF9
:10C7200051F8043B40F8043BAFF30080D20724BF2C
:10C7300011F8013B11F801CB48BF11F8012B24BFC0
:10C7400000F8013B00F801CB48BF00F8012B70470F
:10C7500010B5203AC0F00B80B1E81850203AA0E89C
:10C760001850B1E81850A0E81850BFF4F5AF5FEAD0
:10C77000027C24BFB1E81850A0E8185044BF18C983
:10C7800018C0BDE810405FEA827C24BF51F8043B2A
:10C7900040F8043B08BF7047D20728BF31F8023B7E
:10C7A00048BF11F8012B28BF20F8023B48BF00F812
:10C7B000012B70474FF0000200B513469446964691
:10C7C000203922BFA0E80C50A0E80C50B1F12001A4
:10C7D000BFF4F7AF090728BFA0E80C5048BF0CC052
:10C7E0005DF804EB890028BF40F8042B08BF7047B0
:10C7F00048BF20F8022B11F0804F18BF00F8012B22
:10C800007047704770477047754600F02BF8AE468A
:10C8100005006946534620F00700854618B020B54C
:10C82000FFF720FFBDE820404FF000064FF0000763
:10C830004FF000084FF0000B21F00701AC46ACE8C8
:10C84000C009ACE8C009ACE8C009ACE8C0098D4635
:10C85000704710B50446AFF300802046BDE8104095
:10C86000FFF737BE00487047142800200149182000
:10C87000ABBEFEE726000200704700002DE9FC5F1A
:10C880000025DFF83491A8464FF4807601242F4626
:10C89000304602F047FD38B1D9F80403204203D0F6
:10C8A000304602F035FD2543361D64007F1CB6B2CC
:10C8B000082FEDD34FF4BE74204602F033FD38B19B
:10C8C000204602F025FD3D4845F00045D0F80080A7
:10C8D0003B4E15F0FF0F14D0012700242F420CD03F
:10C8E00009EB8401D1F81005D1F81015C0F304202C
:10C8F00056F82420C1F3014190477F00641C082CA6
:10C90000ECD3002D56DA00200190401E4CE0701947
:10C9100010F8501F90F9000021F0C004401C38D0DE
:10C92000012000FA04FA1AEA090F32D04FEA911BEB
:10C93000204601F08DFD56F82000009010B9BBF1A3
:10C94000030F26D15146BBF1030F02D101980843D2
:10C950000190A00000F1A040D0F800071AEA080FEB
:10C96000C0F3014002D0022802D012E0032810D107
:10C97000BBF1030F07D102281AD00221204602F092
:10C98000B0FC7F1CFFB2009818B1009A59462046AF
:10C9900090476D1C042DBAD3002F0BD007480068B8
:10C9A000404507D080460198002781463D46AEE7C6
:10C9B0000321E3E7BDE8FC9F006000401005005044
:10C9C000DC2400200648054981600649C16006490B
:10C9D0004161182101710020704700007DE30100D2
:10C9E0009824002025E3010021E3010000F01F024C
:10C9F000012191404009800000F1E020C0F8801240
:10CA0000704700F01F02012191404009800000F1B1
:10CA1000E020C0F80011704700F01F020121914092
:10CA20004009800000F1E020C0F80012704749077B
:10CA3000090E002806DA00F00F0000F1E02080F86F
:10CA4000141D704700F1E02080F8001470470000CA
:10CA500007480021C0F84011C0F84411C0F848113F
:10CA6000C0F84C11C0F80011C0F8041103F092B9DD
:10CA7000001001402DE9FE434FF4827002F094FC57
:10CA8000DFF89C80274C00264FF00109A8B1264909
:10CA900040460E608DF80060616801912349096885
:10CAA000ADF80810E168A1B16160A18A2181E6605A
:10CAB000C0F800902168684688474FF48A7002F0F9
:10CAC00073FC48B118481030066084F82760BDE850
:10CAD000FE8384F82760EDE727691EE0B7FA87F048
:10CAE0004FF00041C1408F434FF48C7101EB800542
:10CAF000284602F059FC80B145F80860A5F58C7510
:10CB0000E8088DF8040045F38000401C8DF8009083
:10CB10008DF80500216868468847002FDED1D6E7EA
:10CB2000007000405C250020047100403476004015
:10CB30000149024801F03BBE34250020003000408E
:10CB400003F0C4B8074810B5406830B180470028EA
:10CB500007D0BDE8104000F09BBCBDE8104001F0DC
:10CB6000CFBD10BD8C21002070B58D480023021D63
:10CB70000178101D0124062907D115782D0704D14D
:10CB80000578C5F30315032D02D0062904D00FE064
:10CB9000854E844D75670EE015782D0708D1057810
:10CBA000C5F30315032D06D0042D04D0052D02D0A6
:10CBB000062909D010E04FF08055D5F844527B4E3D
:10CBC000C5F34235356002E015782D0704D10578AC
:10CBD000C5F30315032D02D0062906D011E0744DCC
:10CBE0002E6826F080762E600EE015782D0708D18D
:10CBF0000578C5F30315032D06D0042D04D0052DAB
:10CC000002D006290AD011E04FF08045C5F80C315A
:10CC1000C5F81031654D2D1F2B6002E015782D07EA
:10CC200004D10578C5F30315032D02D0062905D0DC
:10CC30000CE05E4A0321643211600AE015782D078A
:10CC400004D10578C5F30315032D02D006290DD0B4
:10CC50006AE0584A05211160564978310C605549FF
:10CC600008310B603F21121D116002E011780907A5
:10CC70005AD10078C0F30310052855D14E480068FA
:10CC80004E4908604C48001D0068091D08604A486C
:10CC900008300068091D086047480C300068091D0D
:10CCA0000860454810300068091D0860424814308B
:10CCB0000068091D08604048183000683F4920316D
:10CCC00008603D481C300068091D08603A48203063
:10CCD0000068091D0860384824300068091D086094
:10CCE000354828300068091D086033482C3000683A
:10CCF000091D086030483030006830494031086014
:10CD00002D4834300068091D08602B483830006811
:10CD1000091D086028483C300068091D0860264845
:10CD200040300068091D086021487438016841F4EA
:10CD300070010160BFF34F8FBFF36F8F4FF0102171
:10CD4000D1F80002002803DBD1F80402002822DA1F
:10CD50001B4A14601B480468002CFCD01524C1F841
:10CD600000420568002DFCD0C1F80442016800298A
:10CD7000FCD0136001680029FCD0BFF34F8F0C4832
:10CD8000F0380168104A01F4E06111430160BFF31B
:10CD90004F8F00BFFDE70E490C48086070BD0000D2
:10CDA000E00F00F00DF0ADBA00C007403C050040B8
:10CDB000FCED00E0105600400404001020C50040C7
:10CDC00004E5014000E401400400FA050090D003AE
:10CDD000CC21002004220249024801F0C9BC000015
:10CDE000882500200080004004220249024801F00A
:10CDF000BFBC000094250020009000400348007F45
:10CE000008B103F0B3BA03F02DBA0000BC2400202F
:10CE10002DE9FC5F0025168807461580406B1446F7
:10CE20008946A8464FF00C0A11234FF0020B98B127
:10CE300001784846032E48D380F800B02288521C5F
:10CE400092B2228083542288521C92B2228009F826
:10CE500002102088401C20803A6BDAB120884946B5
:10CE600000F11205B54230D80B5420881023401C25
:10CE700080B220800B542088401C20800F20238803
:10CE8000155C401ECD54238840B25B1C23800028D3
:10CE9000F5DA454697F82E0030B13346224649462A
:10CEA00001F005FD050011D197F82D0030B1324693
:10CEB0002146484600F029FF050007D1B87820B385
:10CEC0002088C846001DB04202D95046BDE8FC9FEC
:10CED000684679DF0028F9D12188032008F801008D
:10CEE00020881921401C80B2208008F8001020887A
:10CEF000401C80B2208000EB0801BDF8000003F068
:10CF0000A1FA0146208808442080F878B8B1228828
:10CF100097F90310D31C4846B342D6D800F802B0A4
:10CF200022880123521C92B2228083542288521CF0
:10CF300092B2228009F802102088401C2080786874
:10CF4000B8B1218890F90020CB1C4846B342BCD828
:10CF500000F801B021880A23491C89B2218043547A
:10CF60002188491C89B2218009F801202088401CB1
:10CF70002080388950B1CDE900464B460622022177
:10CF800007F1080003F027FB05009FD1388A50B154
:10CF9000CDE900464B460722032107F1100003F0BC
:10CFA0001AFB050092D1388B50B1CDE900464B46B3
:10CFB0001522142107F1180003F00DFB050085D19F
:10CFC000386A30B133462246494601F0FFFA05007F
:10CFD000DBD1786A30B133462246494601F0EEFD96
:10CFE0000500D2D197F82C0038B133462246494685
:10CFF000384602F0DDFC0500C7D1387838B1334639
:10D0000022464946384601F00BFE0500BDD12846B0
:10D010005CE730B58FB005461C216846FFF7CAFBB8
:10D0200000249DF80000019440F00A008DF80000F3
:10D03000039404940594069495F82A008DF836001C
:10D0400043F22100ADF834000C949DF83000142117
:10D0500020F00F00401C20F0F00010308DF8300060
:10D060009DF8310020F00F00401C20F0F00010303F
:10D070008DF831009DF8320020F00600801C20F071
:10D0800019008DF8320007A8FFF794FB0DA8079050
:10D090000CA808900120ADF82400ADF82640ADF8AA
:10D0A00028000B94288805F10A0307AA6946A2DF25
:10D0B0000FB030BD0878642110FB01F0C0B24FF40E
:10D0C0007A7110FB01F040F27121B0FBF1F00149DF
:10D0D000C88070478020002030B58FB005461C21E5
:10D0E0006846FFF767FB00249DF80000019440F0BC
:10D0F0000A008DF80000039404940594069495F8B2
:10D100002A008DF8360043F22000ADF834000C946C
:10D110009DF83000142120F00F00401C20F0F0009A
:10D1200010308DF830009DF8310020F00F00401CC9
:10D1300020F0F00010308DF831009DF8320020F022
:10D140000600801C20F019008DF8320007A8FFF7B8
:10D1500031FB0DA807900CA808900120ADF8240021
:10D16000ADF82640ADF828000B942888AB1C07AA20
:10D170006946A2DF0FB030BD08780149887070475A
:10D180008020002030B58FB005461C216846FFF78F
:10D1900011FB00249DF80000019440F00A008DF876
:10D1A0000000039404940594069495F82A008DF8E1
:10D1B000360043F22400ADF834000C949DF83000A2
:10D1C000142120F00F00401C20F0F00010308DF8EA
:10D1D00030009DF8310020F00F00401C20F0F000DE
:10D1E00010308DF831009DF8320020F00600801CD0
:10D1F00020F019008DF8320007A8FFF7DBFA0DA820
:10D2000007900CA808900120ADF824001420ADF878
:10D210002640ADF828000B94288805F1220307AAC0
:10D220006946A2DF0FB030BD10B50C461721054886
:10D23000FFF7C0FA03490020225C0A54401C14285E
:10D24000FADB10BD6824002030B58FB005461C21E4
:10D250006846FFF7AFFA00249DF80000019440F003
:10D260000A008DF80000039404940594069495F840
:10D270002A008DF8360043F22300ADF834000C94F8
:10D280009DF83000142120F00F00401C20F0F00029
:10D2900010308DF830009DF8310020F00F00401C58
:10D2A00020F0F00010308DF831009DF8320020F0B1
:10D2B0000600801C20F019008DF8320007A8FFF747
:10D2C00079FA0DA807900CA808900120ADF8240069
:10D2D000ADF82640ADF828000B94288805F11A0314
:10D2E00007AA6946A2DF0FB030BD000010B50B4C95
:10D2F00009782078012909D000280DD0002020705D
:10D3000007480068BDE8104000F068B90028F5D172
:10D3100002F09AFD0120207010BD00008020002046
:10D32000000F020030B58FB005461C216846FFF79C
:10D3300041FA00249DF80000019440F00A008DF8A5
:10D340000000039404940594069495F82A008DF83F
:10D35000360043F22200ADF834000C949DF8300002
:10D36000142120F00F00401C20F0F00010308DF848
:10D3700030009DF8310020F00F00401C20F0F0003C
:10D3800010308DF831009DF8320020F00600801C2E
:10D3900020F019008DF8320007A8FFF70BFA0DA84E
:10D3A00007900CA808900120ADF82400ADF82640A5
:10D3B000ADF828000B94288805F1120307AA6946E6
:10D3C000A2DF0FB030BD000009780D48082915D242
:10D3D000DFE801F00406080A0C0E101204210CE02C
:10D3E00000210AE0FC2108E0F82106E0F42104E035
:10D3F000F02102E0EC2100E0D821417070470000EC
:10D400008020002010B5134B92B061F30F029B688F
:10D410004FF6AA61ADF838101193CDE90F2006241C
:10D4200038216846FFF7C6F98DF8034011A901209D
:10D4300005910EA9ADF810000A918DF82C0000217D
:10D44000684600F01FFB002801D000F021F812B060
:10D4500010BD0000000F0200034873DF002801D058
:10D4600000F016B87047000080240020BFF34F8FF3
:10D4700005480168054A01F4E06111430160BFF30A
:10D480004F8F00BFFDE700000CED00E00400FA053F
:10D490000EB500210091CDE901106A4644F2010069
:10D4A000FFF7E4FF0EBD0000074B9B6823B12AB1D4
:10D4B00020B10068037C1BB108207047072070472B
:10D4C00041744261002070476C2100202DE9F04733
:10D4D0008046994614460F4690074FF0000634D117
:10D4E0001C4D8CB302F0D4F80320C5F814902870BA
:10D4F00004F11800002107EB4703AC6004EBC10204
:10D50000491C167056709770506000EBC3000329D9
:10D51000F4DBEE606E70AE701420FFF767FA062140
:10D520001420FFF784FA1420FFF76BFA0A49C1F8B8
:10D53000008006211120FFF77AFA0748001F0068D3
:10D5400028610020BDE8F08701E00720FAE7AE601F
:10D55000FBE700006C210020081501402DE9F8438D
:10D56000DFF870900D461746D9F80810044651B3FD
:10D570004CB3052D02D20720BDE8F883606910B3D3
:10D58000607C012821D0002602F0F2FFD9F80810B3
:10D59000804601EBC800694603F009F8B8B10121E3
:10D5A00000F8041B0C4910C0096880E8E200D9F8B3
:10D5B000081001EBC8009DF8001041701420FFF71F
:10D5C0002BFA0020D8E70820D6E72E46DCE7042017
:10D5D000D2E700006C21002004150140F8B5124E7E
:10D5E0000446B168E1B1DCB16069C8B100272774B5
:10D5F00002F0BEFF0546B068694600EBC50002F0C8
:10D60000D6FF78B1022101704460B0689DF8001027
:10D6100000EBC50041701420FFF7FEF93846F8BD55
:10D620000820F8BD0420F8BD6C21002070B590B032
:10D630000024054608949DF820000E4620F00F00B7
:10D64000401C20F0F00010308DF820009DF82200E2
:10D6500020F00600801C8DF8220008798DF821004A
:10D660001C2101A8FFF7A6F89DF80400029440F0E1
:10D6700012008DF8040008A80494CDE90540079431
:10D6800095F820008DF83A0043F22210ADF83800EA
:10D6900000949DF8020020F00600801C8DF8020026
:10D6A00071798DF80010B1798DF8011020F0190012
:10D6B0008DF80200142109A8FFF77CF80EA8099044
:10D6C000ADF82C400620CDF828D0ADF82E40ADF8AE
:10D6D00030000D94A88805F1160309AA01A9A2DF5C
:10D6E00010B070BD70B590B00024054608949DF848
:10D6F00020000E4620F00F00401C20F0F0001030FB
:10D700008DF820009DF8220020F00600801C8DF886
:10D71000220008798DF821001C2101A8FFF74AF8A2
:10D720009DF80400029440F012008DF8040008A84F
:10D730000494CDE90540079495F820008DF83A004F
:10D7400043F22010ADF8380000949DF8020020F05C
:10D750000600801C8DF8020071798DF80010B179F7
:10D760008DF8011020F019008DF80200142109A88D
:10D77000FFF720F80EA809900420ADF82C40CDF852
:10D7800028D0ADF82E40ADF830000D94A888AB1D20
:10D7900009AA01A9A2DF10B070BD70B590B0002435
:10D7A000054608949DF820000E4620F00F00401C0E
:10D7B00020F0F00010308DF820009DF8220020F0BD
:10D7C0000600801C8DF8220008798DF821001C21AC
:10D7D00001A8FEF7EFFF9DF80400029440F012004C
:10D7E0008DF8040008A80494CDE90540079495F845
:10D7F00020008DF83A0043F22110ADF83800009473
:10D800009DF8020020F00600801C8DF8020071795E
:10D810008DF80010B1798DF8011020F019008DF805
:10D820000200142109A8FEF7C5FF0EA80990ADF863
:10D830002C400220CDF828D0ADF82E40ADF83000B5
:10D840000D94A88805F10E0309AA01A9A2DF10B062
:10D8500070BD2DE9F0430546007D93B00E460024CF
:10D86000A0B107949DF81C0020F00F00401C20F090
:10D87000F00010308DF81C00707B8DF81D009DF8B5
:10D880001E0020F00600801C8DF81E001C2168463A
:10D89000FEF790FF9DF8000040F002008DF80000B8
:10D8A000297D11B140F0100001E020F010008DF84A
:10D8B0000000019403940494287D00B107A8CDE9E9
:10D8C000050401278DF8427042F61920ADF840009A
:10D8D0000D94B07B8DF83400F07B8DF835009DF809
:10D8E0003600142120F00600801C20F019008DF86D
:10D8F0003600307B8DF8440008A8FEF75BFF0DF181
:10D9000040080DF13409ADF8287011A8CDE9088957
:10D91000ADF82A40ADF82C700C90A888AB1D08AA71
:10D920006946A2DF002838D1B06898B38DF84270FC
:10D9300042F60810ADF840000D94307C8DF83400AC
:10D940009DF8350020F0FF008DF835009DF8360079
:10D9500020F00600801C20F019008DF836000EA87B
:10D96000B16800F0C4FA0646142108A8FEF722FFA9
:10D97000ADF828600EA8CDE90889ADF82A40ADF8C9
:10D980002C600C90E88805F10E0208A9A3DF00289E
:10D9900003D101E0FFE7EC81002013B0BDE8F08384
:10D9A00030B5044685B04FF6FF70A0850868206347
:10D9B000486860638868A063C868E0631C4B0869B6
:10D9C0000D4620640FCB8DE80F0004F12A01684654
:10D9D00063DF002829D194F82A008DF812004FF453
:10D9E000A950ADF81000224604A90120A0DF0028AC
:10D9F0001BD129462046FFF76FFB002815D1294689
:10DA00002046FFF706FB00280FD129462046FFF7E6
:10DA100089FC002809D129462046FFF715FC00287B
:10DA200003D129462046FFF7ADFB05B030BD00000D
:10DA3000380F02000A88102A0AD0112A0AD0502A68
:10DA40000BD1CA88438812319A4207D1026B18E081
:10DA5000898801E04FF6FF718185704743899A42BA
:10DA600001D1426B0DE0438A9A4201D1826B08E0FA
:10DA7000438B9A4201D1C26B03E0438C9A42ECD1B2
:10DA8000026C1047F0B50C4693B01F210726ADF885
:10DA90000010ADF80410002750B1C17849070DD52A
:10DAA0006A4602A9FFF7B4F9002808D102AD02E0E6
:10DAB0000025ADF800706CB1E07810B1304613B0BD
:10DAC000F0BD01AA0AA92046FFF7A2F90028F6D165
:10DAD0000AAA02E00022ADF80470BDF80400C3B247
:10DAE000BDF80000C1B2284672DFE8E730B5044651
:10DAF00085B008682060164B4FF6FF700D46E08336
:10DB00000FCB8DE80F0004F12001684663DF94F825
:10DB100020008DF812004FF4B150ADF81000221D16
:10DB200004A90120A0DF00280FD129462046FFF7D5
:10DB3000D9FD002809D129462046FFF72EFE0028EE
:10DB400003D129462046FFF771FD05B030BD000026
:10DB5000480F02000A88102A05D0112A02D14FF678
:10DB6000FF71C18370478988FBE733B587B0040034
:10DB700028D0002504200095ADF8000008A8ADF8D5
:10DB800002500190E188E08B6A46A4DFE08BA0F5AB
:10DB90007F41FF3918D00295039504950595E088DB
:10DBA000ADF8080001208DF80A00BDF80200ADF8BC
:10DBB0000C000198CDF810D00590E08B02A9A6DFEB
:10DBC00009B030BD0E20FBE70820F9E733B587B078
:10DBD000040028D0002502200095ADF8000008A818
:10DBE000ADF802500190E189E08B6A46A4DFE08B3A
:10DBF000A0F57F41FF3918D002950395049505954E
:10DC0000E089ADF8080001208DF80A00BDF8020097
:10DC1000ADF80C000198CDF810D00590E08B02A96A
:10DC2000A6DF09B030BD0E20FBE70820F9E773B589
:10DC300086B0040034D0217C9DF81C200020914245
:10DC40002CD0002501260095ADF8006007A8ADF89E
:10DC500002500190E188608A6A46A4DF00281DD145
:10DC60009DF81C002074608AA0F57F41FF3919D00F
:10DC7000207DB8B10295039504950595E088ADF82F
:10DC80000800BDF80200ADF80C0001988DF80A609C
:10DC9000CDF810D00590608A02A9A6DF08B070BD4B
:10DCA0000E20FBE70820F9E738B50D4604001BD02D
:10DCB000D5B1286820604FF6FF7060822879207502
:10DCC000FF20207401208DF8020041F60F00ADF80E
:10DCD0000000221D69460120A0DF002803D129464B
:10DCE0002046FFF7B6FD38BD0E2038BD002809D00C
:10DCF000002907D00A88102A05D0112A02D14FF630
:10DD0000FF71418270478988FBE77CB5054608882A
:10DD10000C460930904201D90C207CBD684671DF69
:10DD20000028FAD121880820685420881B21401C33
:10DD300080B2208029542088401C80B22080284452
:10DD4000DDF801100160BDF8051081802088801D7C
:10DD500080B220809DF8001001B101212954208853
:10DD6000401C208000207CBD7FB5044601208DF83A
:10DD7000060041F60A00ADF80400454A01A9012059
:10DD8000A0DF00287ED1228804F13C0552B1404832
:10DD90002B46801C009042F62920616800F060FB51
:10DDA000002873D1228952B139482B460A3000909D
:10DDB00042F62420E16800F053FB002866D1228A55
:10DDC00052B133482B461230009042F6252061694B
:10DDD00000F046FB002859D1228B52B12C482B462B
:10DDE0001A30009042F62720E16900F039FB002844
:10DDF0004CD1228C52B126482B462230009042F65C
:10DE00002620616A00F02CFB00283FD1228D52B100
:10DE10001F482B462A30009042F62820E16A00F085
:10DE20001FFB002832D1216B71B102A801F02CFF39
:10DE300017482B4632300090082202A942F62320D0
:10DE400000F00EFB002821D1606B58B110492B4621
:10DE50003A3100910279016842F62A2000F000FB75
:10DE6000002813D1A16B81B102A801F0DBFA0848A8
:10DE70002B4642300090072202A942F6502000F0C3
:10DE8000EFFA00E002E0002800D1002004B070BDED
:10DE90002221002010B5044601460E48FFF7CAFDB6
:10DEA0000C4821463C38FFF721FF0A482146243818
:10DEB000FFF750FE21880848102908D0112908D101
:10DEC0004FF6FF710181BDE81040FFF7C5BAA18888
:10DED000018110BD242400208020002070B504465C
:10DEE0000D460846FEF7D0FB2080656070BD0A78BD
:10DEF00002704978417002207047000000B5184850
:10DF000087B00023406805904822164905A801F013
:10DF10008BFE08B1FFF7BCFA6A460121002001F030
:10DF20006DFE08B1FFF7B4FA0F4801F081FC08B1AB
:10DF3000FFF7AEFA684601F057FE08B1FFF7A8FAFE
:10DF40000A4801F047FE08B1FFF7A2FA084801F0BD
:10DF500085FE002801D0FFF79BFA07B000BD000046
:10DF6000000F0200F0210020E81F002095DE0100D4
:10DF700087FC010010B501F0DFFF022000F0B6FEC3
:10DF8000FEF720FD104800F021F8032000F03AF9D8
:10DF9000082000F051F8022000F0A8FE0121002026
:10DFA00000F0D0F80121084600F0CCF80021084626
:10DFB00000F092F80021012000F08EF8BDE810403A
:10DFC000022000F093BE0000982400207CB50021C0
:10DFD0000E4C8DF800108DF804100146606001238E
:10DFE000CD6800796A460021A847616805469DF81A
:10DFF00000004870012201A93E2000F009F8626883
:10E0000028449DF8041040B251717CBDC421002009
:10E01000F0B406460748406840B105791346C46825
:10E020000A4631462846A446F0BC6047F0BC6FF073
:10E030007E007047C4210020F8B50021254D8DF8E1
:10E0400000100C46696841B14B7808386FF0010246
:10E05000FB2B05D0082825D322E06FF07E00F8BD09
:10E0600007281DD205D2DFE800F02527292B2D2F08
:10E07000310008790123CE686A461021B047064670
:10E080009DF80000012364F304008DF80000696826
:10E090006A4608798C681021A047304440B2F8BD28
:10E0A0001046F8BD0828E4D2DFE800F00406080AAC
:10E0B0000C0E10120824DCE70924DAE70A24D8E75A
:10E0C0000B24D6E70C24D4E70D24D2E70E24D0E7A6
:10E0D0000F24CEE7C4210020F8B50D46184C0021CE
:10E0E0008DF80010626822B130B1012810D0881E6E
:10E0F000F8BD6FF07E00F8BD10790123D6686A463E
:10E100002021B04706469DF8000065F300000AE0B4
:10E1100010790123D6686A462021B04706469DF84B
:10E12000000065F382008DF80000616801236A46F3
:10E1300008798C682021A047304440B2F8BD000027
:10E14000C4210020F8B50D46184C00218DF80010B0
:10E15000626822B130B1012810D0881EF8BD6FF07E
:10E160007E00F8BD10790123D6686A462021B047A9
:10E1700006469DF8000065F341000AE0107901238E
:10E18000D6686A462021B04706469DF8000065F330
:10E19000C3008DF80000616801236A4608798C6825
:10E1A0002021A047304440B2F8BD0000C421002027
:10E1B000F0B5134903460020496861B1062B1BD214
:10E1C0000022042502260124062B06D2DFE803F0F4
:10E1D00006080C120A0F6FF07E00F0BD8A7004E092
:10E1E0008E7002E08E7003E08D70CA70F0BD8D708D
:10E1F000CC70F0BD8C70F0BD6FF00100F0BD000080
:10E20000C4210020FEB5064600203A4C8DF80000DF
:10E210008DF804008DF808006068002866D0077942
:10E220000123C5686A4611213846A847616805463A
:10E2300001230879CF6801AA1221B8470544304666
:10E24000FFF7B6FF616805449DF80420C8788E7812
:10E2500060F386128DF80420087901238F6801AAE3
:10E260001221B847054460684169012088479DF83C
:10E270000000012320F0E00040F080008DF8000055
:10E2800061686A4608798F681121B847054460685B
:10E290004169012088476068012202A940798DF810
:10E2A00008003E2000F028F805446068416901201C
:10E2B0008847616801236A460879CF681121B84709
:10E2C00005449DF80000012366F347108DF8000017
:10E2D00061686A4608798E681121B047284445B2C2
:10E2E00060684169012088472846FEBD6FF07E05C1
:10E2F000FAE70000C4210020F0B406460748406851
:10E3000040B10579134684680A4631462846A4463A
:10E31000F0BC6047F0BC6FF07E007047C421002065
:10E3200000F0E4BC2DE9FC41064601201F46904662
:10E330008DF804100346009001AA31460D4800F004
:10E3400097FF08B1FFF7A4F80B4C60780028FCD0C9
:10E35000002565703B4642463146064800F076FF90
:10E3600008B1FFF795F820780028FCD02570002030
:10E37000BDE8FC81200F020020210020FEB5002412
:10E380008DF8041001A904E0155D0E19641C757068
:10E39000E4B29C42F8D3012100915B1C0146DBB240
:10E3A00001AA074800F064FF08B1FFF771F80548BB
:10E3B00041780029FCD0002141700846FEBD0000D4
:10E3C000200F02002021002010B5074CE07830B16A
:10E3D00074DF08B1FFF75CF80020E07010BDFFF7B4
:10E3E0003BF80120F9E700008020002005494FF0AC
:10E3F000FF32082841F8202002D3084480F8482042
:10E4000070470000DC240020F0B54FF0FF3512B15A
:10E410000023082601E008230C260C4C05E000BF71
:10E4200054F823707F1C04D05B1CB342F8D32846F9
:10E43000F0BD26185DB286F8305044F82310002A4B
:10E44000F5D1E11881F84800F1E70000DC24002054
:10E450000249084490F9300070470000DC24002095
:10E460002DE9F0438FB01E46DDF8589015460F0099
:10E47000804602D10020FFF70BF815B90020FFF706
:10E4800007F81C216846FEF795F900249DF8000066
:10E49000039440F002008DF80000012001948DF8F3
:10E4A0003600049405940694ADF834800C943078CA
:10E4B0008DF8300070788DF831009DF8320014210D
:10E4C00020F00600801C20F019008DF8320007A80B
:10E4D000FEF770F90DA807900CA808900748ADF852
:10E4E0002450ADF82640ADF828500B974B4607AAAC
:10E4F00069460088A2DF0FB0BDE8F083222100202A
:10E5000000EB80020548002100EB8200022201712D
:10E51000C180C0E90321416101817047A02500202D
:10E520002DE9F05F2648C168F1B3DFF898B00E68B6
:10E530008146DBF800400769C078E11B21F07F4588
:10E54000ED1CB0B9DFF880804FF48030C8F8440388
:10E55000C8F804031120FEF749FA1120FEF751FA1A
:10E560004FF0010AC8F800A02F20FDF7B9FF89F885
:10E5700003A0B54200D23546124BE8193C3320F0D7
:10E580007F401860DBF800105A46091B21F07F41DC
:10E59000001B20F07F40C91C81420FD91068186011
:10E5A0002F20FDF79DFF00E004E0BDE8F05F1120A3
:10E5B000FEF732BABDE8F05F01F06AB8BDE8F09F3F
:10E5C0006C21002004150140001001402DE9F041AC
:10E5D00017880646B81D14460D46984202D90C20ED
:10E5E000BDE8F0813188072206290AD34FF4486C30
:10E5F0004FF6FF73614501D9994202D17088062810
:10E6000001D21046ECE7604501D99842F9D1994210
:10E6100003D0984201D08142F3D80520E8552088E4
:10E620001221401C80B2208029542088401C80B2D6
:10E6300020804119308801F005FF2188084480B20C
:10E6400020804119708801F0FDFE21880844208057
:10E650000020C5E70E4910B54A788C780023A24205
:10E6600012D0521CD2B24A70022A00D14B70084A12
:10E670004B78183252F8232002600869104420F0C9
:10E680007F400861012010BD0360002010BD000024
:10E690006C2100203EB518A19DF8080020F00F0065
:10E6A000401C20F0F00010308DF80800072202A86E
:10E6B0007CDF08B1FEF7ECFE002000900190ADF881
:10E6C000040010214FF4C870ADF80010ADF806003A
:10E6D000ADF8021068467ADF041E4FF4107507D0BB
:10E6E000FEF7D6FE284678DF2046FEF7D1FE3EBD77
:10E6F000284678DF3EBD00004D6F7665203035003E
:10E70000F8B51A4C207800282ED0206928B10026B0
:10E71000E06820B1002526B110E00126F8E70125C8
:10E72000F9E7684652DF052803D020B1FEF7B0FEB6
:10E7300004E0012602E021690098884785B96088D5
:10E74000ADF800006946A06861DF052803D020B15C
:10E75000FEF79EFE04E0012502E0D4E902018847AD
:10E76000002EDED0002DD6D0F8BD00008C21002078
:10E770002DE9F04100251646884604462F4612E052
:10E780004FF4A07000EB85004FF480312258A9406F
:10E790003AB1D4F804230A4203D02750D8E9002123
:10E7A00090476D1CEDB2B542EAD3BDE8F0817FB56C
:10E7B0000C46054691F8211094F82000CDE900019F
:10E7C00004F12602D11E2846E36901F029FC002845
:10E7D00023D194F8230008BB207B022801D0032812
:10E7E0001CD12269E169914218D16269E261E37B3F
:10E7F00084F82030217E0328C1F3401184F82110D1
:10E8000006D004B029462046BDE8704001F0B6BBF2
:10E8100000912946204601F07CFC7FBD04F10C00EC
:10E8200001AB07C883E8070094F82300002168B112
:10E83000D5F8C404C5F8C404820701D5012002E05C
:10E84000400705D502208DF8000001E08DF800108A
:10E8500084F82410207E4007DFD4D4E900216846E4
:10E8600090477FBDD8B1012819D0022817D00328BE
:10E8700015D0042813D0052811D006280FD007285A
:10E880000DD008280BD0092809D00A2807D00B285A
:10E8900005D00C2803D00D2801D00020704701209E
:10E8A0007047800701D0002070470120704730B5C5
:10E8B0001488E51C9D4201D90C2030BD02250D5560
:10E8C00013881C245B1C9BB21380CC5413885B1CE4
:10E8D0009BB21380012807D0022807D0032807D055
:10E8E000042807D0072030BD002004E0012002E00A
:10E8F000CD5401E00320C8541088401C1080002033
:10E9000030BD00002DE9F047DFF8ACA0DAF80C00CC
:10E910009AF8004080469AF80460DAF80890DAF82D
:10E9200010703AE009EBC4052A7833E002EB4201AB
:10E930006B68521C03EBC101AB78D2B2934200D199
:10E9400000220B78022B02D0032B23D11FE0D1F839
:10E9500004C00346014603E0614503D00B46C96984
:10E96000C1B1F9E7B1B18B4205D1C06918B9134FF4
:10E970000126BE600027D1F800C0C969D96149B13C
:10E980000B6863440B6005E00174C06900E000217E
:10E990000028F9D169789142C8D1641EE4B2C1D28D
:10E9A000CAE903078AF80460404502D00120BDE8A7
:10E9B000F0870020FBE700006C21002000100140E0
:10E9C0002DE9F04705462F48002680460778D0F805
:10E9D0000C904BE0D8F8080000EBC70440E002D0F0
:10E9E0002846ED691EE02078616800EB4002401C7B
:10E9F000C0B201EBC2012070A278904200D1267013
:10EA00000A784868012A2DD1027C5ABB8A68426084
:10EA1000CA6882600A69C2604969816198F8041015
:10EA200001B146604268D8F81030DFF85CC0D11AF6
:10EA300021F07F41614502D28268114406E0991AB3
:10EA4000826821F07F418A4202D9511A016000E0B8
:10EA500006604660012186600174C66101F07CF9A0
:10EA6000002DBCD1207861788842BCD17F1EFFB2D6
:10EA7000B0D2D8F80C10494502D00120BDE8F0878B
:10EA80000020FBE76C210020FFFF7F0010B5002372
:10EA900010221B491B4800F04DFD1949194800235D
:10EAA00010220831103000F045FD154915480023AB
:10EAB00010221031203000F03DFD1249104810386E
:10EAC0000A7882708A784270C97801B10121017098
:10EAD0000C4A0020103202F1A001135C0B54401CC0
:10EAE000C0B21028F9D3074A10202032131813F8A7
:10EAF000103C0B54401CC0B21728F7D310BD0000C7
:10EB000090200020B82300201FB500F0C7F908B1FD
:10EB1000FEF7BEFC2548264A6946C06800900320DF
:10EB20008DF80100192000F05DF908B1FEF7B0FC86
:10EB30000121192000F004F9FFF71CFA01F014FA82
:10EB4000FFF7DCF9FFF7A6FD012047DF1020ADF845
:10EB50000C000420ADF80E001648029000F0BAFC3C
:10EB6000694602A800F03AFD134A0021684600F009
:10EB700073FC114A01210832684600F06DFC0E4A10
:10EB800002211032684600F067FC01F045F9FFF7FA
:10EB90007DFF00F051FF01F057F901F059FC48DF0B
:10EBA0000028FCD0FEF774FCF9E70000000F02001B
:10EBB000C9E3010085FC01009020002070B51446D7
:10EBC00082880E4605462088111D0144921C9942F8
:10EBD00001D8FE2A01D90C2070BD521C3254208865
:10EBE000FF21401C80B2208031542088401C80B21C
:10EBF00020808119288801F025FC2188084480B2F2
:10EC00002080AA8842B1A96841B13044FDF75BFD7C
:10EC10002088A98808442080002070BD072070BD8E
:10EC2000F8B50E46017814460546012901D16878E9
:10EC300030B12088821C9A422DD8012902D006E0EA
:10EC40000720F8BD69780144891C994223D8181A15
:10EC5000801E87B2ADF800702188B01C0844694658
:10EC60007DDF0028EDD12878022805D1BDF80010FD
:10EC7000B94201D809210AE00821012805D16878A4
:10EC8000B84202D8ADF8000001E0ADF80070BDF860
:10EC90000000FE2801D90C20F8BD2288401CB05489
:10ECA0002088401C80B2208031542088401C208065
:10ECB000BDF80010084420800020F8BD10B51821D0
:10ECC0000848FDF777FD07480321074A0170002136
:10ECD00041600172D3880382418292F9010077DF9B
:10ECE00010BD0000802400208020002031B540F2BB
:10ECF000E73404E0401E00902046FDF72DFC00980C
:10ED00000028F7D138BD4907090E002806DA00F0BF
:10ED10000F0202F1E02282F8141D03E000F1E0226C
:10ED200082F8001400F01F02012191404009800088
:10ED300000F1E020C0F88012C0F800117047000018
:10ED40002DE9F0478846814600F054FB0124224E0D
:10ED50000028484618D0FFF77BFB304490F8480065
:10ED60008009032802D0012806D007E01B4800686C
:10ED700004FA09F4204201D1022100E003214846AF
:10ED8000BDE8F04700F0ADBA00F040FB002820D00D
:10ED90004846FFF75DFB0546114F4FF4807007EBC7
:10EDA000850100EB8500D1F8102580B242F0010208
:10EDB000C1F8102500F0ACFAB8F1000F09D04846B0
:10EDC000FFF746FB56F82000002802D0AC40C7F8F9
:10EDD0000443BDE8F0870000DC240020100500504B
:10EDE000006000402DE9FC41DFF8A480044608EBF8
:10EDF0000400002790F930001346C0170E46401C4F
:10EE000001D0082740E0F27819462046FFF7FCFAC7
:10EE10000546401C37D0B07848B1A00000F1A040B2
:10EE2000D0F8001721F00201C0F8001707E0002118
:10EE30007378204600910A46019100F041FAF0787B
:10EE4000C0B11448317800EB8500D0F81025124B82
:10EE50001A40C0F810254FF4F8524FF4403302EA3C
:10EE6000042203EA01410A43D0F810150A43C0F80E
:10EE7000102509E008EB0500327810F8481F41EA38
:10EE80008211017000E004273846BDE8FC810000D3
:10EE9000DC24002000600040FFE0FCFF70B5124D54
:10EEA00095F8540008B1082070BD0020411E2A18B2
:10EEB000401CC0B282F830102028F8D3002420462D
:10EEC000FFF794FA641CE4B20C2CF8D30621084630
:10EED000FFF719FF05494FF00040C1F80403012076
:10EEE00085F85400002070BDDC2400200060004044
:10EEF0002DE9F05F1F4E054602200C46C6F80803B8
:10EF00001D48DFF87C90002790F82720DFF86C8000
:10EF1000B11509F1040A012A10D00221C6F8041320
:10EF2000012180F8271045600481C760C9F80050AE
:10EF3000CAF80040C8F80070316018E0C2682AB111
:10EF40000220C6F804031120BDE8F09FC56084824A
:10EF50008B46584600F028FA0028FAD0C8F800700E
:10EF6000C9F80050CAF800400220C6F80403002087
:10EF7000EAE70000007000405C25002000710040BE
:10EF80002C76004070B5104A05460C4692F82700D2
:10EF9000012804D002EB4501887D10B105E0112065
:10EFA00070BD12F8280F401C1070A0798875E079A8
:10EFB000C8752146284600F0BDF9E279A1792846B6
:10EFC00000F0E8F9002070BD5C25002010B5104964
:10EFD000044691F82700012817D001EB4402907DE8
:10EFE00018B111F8280F401E087000209075D075D8
:10EFF00002460146204600F0CDF940F2FF72D143AF
:10F00000204600F041F8002010BD112010BD000086
:10F010005C25002070B5174A92F826300BB1082005
:10F0200070BD09B110B102E0072070BD1248134B4A
:10F0300042F80C1B017819601B1D417819600124EE
:10F0400094760021D17611770D4D51606FF000421A
:10F05000C5F808230B4A11608178072005F5417532
:10F06000FFF751FE022028600448F03804600020B9
:10F0700070BD00005C250020740F0200F075004098
:10F0800000700040047100402DE9F04117460C4625
:10F090000546C1EA07401A4E06EB0511C1F81C05EA
:10F0A0000021284600F088F92346012101EB4502A2
:10F0B000144CC907D140226913F5006F1BD00A43D5
:10F0C0002261C6F804030121284600F075F96A00A0
:10F0D0004FF00041D140A7F5E0632269FF3B05D026
:10F0E0000A432261C6F80403BDE8F0818A43226125
:10F0F000C6F80803F8E78A432261C6F80803E2E786
:10F10000007000405C2500200549002091F8271080
:10F1100019B1044A012111607047112070470000A5
:10F120005C250020047000402DE9F04180214FF063
:10F13000E02201200026C2F880111549144D083143
:10F14000086042F210744FF48A7700E0641E38467B
:10F1500000F02AF908B9002CF8D10E4806606FF0CB
:10F160000040C5F808030C4D5FF0000485F82760E7
:10F1700005EB4400807D10B12046FFF727FF641C9B
:10F18000E4B2082CF4D385F82660BDE8F0810000D5
:10F1900000700040007500405C2500200179064A9F
:10F1A00001EB8101006802EBC1010522C0F80025D6
:10F1B000022081F8220070473425002070B50646F1
:10F1C00000790D461F4C00EB800104EBC10494F85C
:10F1D000221009B1082070BD15B91B4901EB0015BB
:10F1E0000020C4E90023A06084F8250084F82400EE
:10F1F0002946304600F03AFE296840F20C6089004A
:10F2000001F1A041C1F800076968890001F1A0413E
:10F21000C1F80007D5E900123068C0F80815C0F839
:10F220000C25A968C0F82415206828B13068297B0E
:10F23000000B40B2FFF767FD012084F82200002098
:10F2400070BD000034250020580F02003EB5074D68
:10F250002C69AD6900948DF80110019202958DF82A
:10F2600002300022694600F015F83EBD580F02003A
:10F270003EB500250095069C8DF8011002958DF88D
:10F28000023001920CB1202200E00022694600F019
:10F2900001F83EBD30B40379084C03EB830304EB63
:10F2A000C304930702D030BC0620704700681346A1
:10F2B0000A460146204630BC00F069BF34250020D4
:10F2C00030B541EA4201DDE9034541EA83018000AE
:10F2D00041EA042100F1A04041EA0541C0F80017CD
:10F2E00030BD800000F5E06000F1A040026822F42B
:10F2F00040320260026842EA01410160704700004A
:10F30000012181400148016070470000080500505C
:10F31000034908B50844002101600068009008BD59
:10F320000060004002494058012800D0002070478A
:10F330000060004010B50A784B78302402F00302D8
:10F3400004EA03131A438B784FF4E06404EA0323BE
:10F350001A43CB784FF4805404EA03331A430B79F1
:10F360004FF4E02404EA03431A434B794FF480142A
:10F3700004EA03531A43030105481844C0F818254A
:10F380008A79C979C0F81415C0F8102510BD00009D
:10F3900000700040030103481844C0F81425C0F869
:10F3A000101570470070004002494058002800D0F6
:10F3B0000120704700700040024619B14020510002
:10F3C000884070478020FAE74058002800D001208C
:10F3D00070474058002800D001207047D0F804033F
:10F3E000084000D0012070474058002800D001207C
:10F3F000704770470449084490F93000082801DB41
:10F400000120704700207047DC2400200449084494
:10F4100090F93000082801D2012070470020704781
:10F42000DC24002070B50D00044602D10020FEF758
:10F430002FF814B90020FEF72BF82878207069887F
:10F440006170090AA170A988E170090A2171E88830
:10F450006071000AA07170BD70B5124B1B795B071B
:10F4600001D4082070BDB8B1B2B10368022B11D22B
:10F470000D4C03EB430554F825605EB1466804EB80
:10F48000850004894568408901FB046100FB045044
:10F49000884203D8072070BD0E2070BDC2E900313C
:10F4A000002070BDA0210020FC27002010B54FF0E7
:10F4B00010204469601C04D000F007F8B4FBF0F0A1
:10F4C00010BD4FF08050406910BD4FF08050006972
:10F4D00080B2704770B5144800242546047044700B
:10F4E0002846FFF70DF86D1C1E2DF9D30F4D6C80CB
:10F4F000FFF7DCFFC61EFFF7E8FF46430C49AE608E
:10F5000000206C6100EB4002401C41F8224001EBFE
:10F510008202022814815481F4D32C70AC6104203F
:10F52000EC616860002070BDA0250020A0210020B3
:10F53000FC2700202DE9F843804626481F46164642
:10F5400000790C46400702D40820BDE8F883ECB1EE
:10F55000B8F1000F1AD02068022815D21E4D00EB1A
:10F56000400055F8201079B105EB800042894168D0
:10F57000008902FB00116268914205D926B1B042B0
:10F5800002D3F119814203D90720DEE70E20DCE720
:10F590004046FFF786F9D0B13846FFF782F9B0B19F
:10F5A0006068FFF77EF990B160683246C119404645
:10F5B000FDF789F800962068002200EB40004346E2
:10F5C00055F8205002212046A8470020BDE7102012
:10F5D000BBE70000A0210020FC2700202DE9F0411E
:10F5E000294D04460E462879400702D40820BDE87C
:10F5F000F081ECB1E6B12068D0B1FFF766FF0146BB
:10F60000A088814212D3102810D3E08870B1FFF790
:10F610004DFF471EFFF759FF4743E288A188A868BE
:10F6200002FB0102974201D3890703D00720DEE7DE
:10F630000E20DCE76988022924D0C6E90010134AAD
:10F6400001EB410302EB83014860206842F823008C
:10F65000A0880881E0884881FFF737FFA188E28809
:10F66000401E01FB0204FFF730FF94FBF0F4FFF7AC
:10F670002CFFA96804FB0010A8606888401C688003
:10F680000020B4E70420B2E7A0210020FC270020DE
:10F6900070B5012670044FF0E0210025C1F880010B
:10F6A000084C4010C4F84803C4F8080366602F20D3
:10F6B000FCF716FFA660044C2F202561FCF710FF15
:10F6C000E57070BD001001406C21002009480A4916
:10F6D0000022C37DC1F8082143B1D1F81815437E3B
:10F6E000C268D154417E491C41767047D1F8180553
:10F6F00070470000BC240020002000401FB50122FC
:10F700008DF8080004488DF800200191D0E900121E
:10F71000684690471FBD0000BC24002010B5044679
:10F720000078002822D101216068FFF7E1FB08B1D1
:10F73000FDF7AEFE0E49087810B1012806D00AE0A8
:10F7400060684A8800881044488004E060688A88BD
:10F75000008810448880FFF7E7FC06490220C1F8C2
:10F7600008034FF0E0218020C1F8800210BD0000A6
:10F7700006210020007000400148408870470000CA
:10F7800006210020014880887047000006210020E3
:10F7900070B5214800240421047044708470C47042
:10F7A0000171447106228271C47108300470447082
:10F7B0008470C4700171447105218171C47117494D
:10F7C0000020FFF727FC08B1FDF762FE124D0A3D4D
:10F7D000287810B101280BD012E00F490120083120
:10F7E000FFF7D0FB08B1FDF753FE0120287007E0BA
:10F7F00009490020FFF7C6FB08B1FDF749FE2C7050
:10F8000005480121001FFFF773FB002803D0BDE866
:10F810007040FDF73DBE70BD102100201DF70100B6
:10F8200002480021418081807047000006210020AD
:10F8300008B502490020009108BD0000802000208A
:10F8400010B50121202803DA1D4A8140114004E04F
:10F85000402803DAA0F12002914041B1002809DAE2
:10F8600000F00F0101F1E02191F8141D06E042F2D1
:10F87000010010BD00F1E02191F8001449090829A8
:10F8800014D299B1012911D004290FD005290DD026
:10F890000C4A946800F01F0301219940400944B1CB
:10F8A00052F820300B4342F8203007E042F20200C9
:10F8B00010BD800000F1E020C0F80011002010BD54
:10F8C000FC06FFBCB024002038B5FFF761FF00F054
:10F8D000CFF92D4C20790A280ED1FFF74DFF0525D1
:10F8E000B0FBF5F06081FFF74DFFB0FBF5F0A081B4
:10F8F000FFF796FF002020712079401C207120899D
:10F90000A0F57F41FF393ED0A08901F0F8F89FEDC6
:10F910001F1B53EC112B01F003FA9FED1E1B53EC40
:10F92000112B00F067FF9FED1D1B53EC112B00F016
:10F9300061FF9FED1C1B53EC112B01F0F3F801F05C
:10F94000B1F8C1B21948FEF772F958B1082809D0C8
:10F95000A0F54051043905D043F20141884201D05D
:10F96000FDF796FD684653DF08B1FDF791FD0F489E
:10F9700000991830FEF7F9F86189BDE838400B4866
:10F980001830FEF723B938BD80200020C74B3789D7
:10F9900041A0304000000000002471409A999999DC
:10F9A000999909400000000000005940E823002018
:10F9B0002DE9F0410746806A14468846C8B3002501
:10F9C00031E000BFB96A05EB450001EB8006B08865
:10F9D000801CFE2802D90C20BDE8F0812288401C42
:10F9E00008F8020020881622401C80B2208008F807
:10F9F00000202088401C80B2208000EB0801308865
:10FA000000F020FD2188084480B22080B28842B1F5
:10FA1000B16871B14044FCF756FE2088B1880844B3
:10FA200020806D1CEDB297F82C00A842CAD80020A7
:10FA3000D2E7FFE70720CFE710B5A2B05848009003
:10FA400058480190584802905848039058480490EC
:10FA500069465848FDF7A4FF08B1FDF719FD0024D9
:10FA600055480C940A908DF8314002200B948DF883
:10FA700032009DF82C000AA920F00F00401C20F055
:10FA8000F00010308DF82C009DF82D0020F00F00B4
:10FA9000401C20F0F00010308DF82D009DF82E0055
:10FAA00020F0FF008DF82E009DF82F0020F00F00B1
:10FAB000401C20F0F00010308DF82F009DF8300031
:10FAC00020F0FF008DF830003A482438FEF70EF899
:10FAD00008B1FDF7DDFC142105A8FCF76BFE9DF8CD
:10FAE0002100059420F00F00401C20F0F0001030A1
:10FAF0008DF821009DF82200079420F00F00401C93
:10FB000020F0F00010308DF822009DF8230005A9A8
:10FB100020F0FF008DF823009DF824008DF8204090
:10FB200020F00F00401C20F0F00010308DF8240071
:10FB300001208DF818001F483C38FEF7B5F808B1D1
:10FB4000FDF7A6FC40210DA8FCF734FE1BA10DA873
:10FB5000FEF7C4F91BA10FA8FEF7C0F91B4811213D
:10FB6000CDE91E011A4820901EA819909DF870003A
:10FB700020F00F00401C20F0F00010308DF87000D5
:10FB80009DF8710020F0FF008DF871000DA8FEF7C0
:10FB9000EBF8002801D0FDF77BFC22B010BD00007F
:10FBA00079D10100B5D00100C9D30100EDD2010027
:10FBB00029D2010024240020F3F30100576962696F
:10FBC000636F6D0030303031000000005544332247
:10FBD0008877660018B10349C860002070470E207E
:10FBE000704700008C2100201CB503490191009151
:10FBF000694660DF1CBD00008020002070B50E4605
:10FC00000546144614211046FCF7D4FD012020803F
:10FC10000021216121732672657205B1A072002056
:10FC200070BDFDF723BC000030B409B18C0702D0D1
:10FC3000072030BC7047074C0125A160628006494F
:10FC4000636010DF0028F4D1257030BC1620FFF768
:10FC5000F7BD00008C21002023FC010018B10349EE
:10FC60000861002070470E20704700008C210020A2
:10FC700010B5FFF749FA002803D0BDE81040FDF7A2
:10FC800007BC10BD7047704770B50C00054602D127
:10FC90000020FDF7FDFB15B90020FDF7F9FB2078EA
:10FCA00028702088000A68702068000CA8702068FE
:10FCB000000EE87020792871207A68712089000A86
:10FCC000A871A068000CE87170BD00002DE9F84F24
:10FCD000204C00256846D4E903B6FEF7BBFC8046FD
:10FCE000FEF710FE0746A946B8F1000F25D0002305
:10FCF000009ACC46E06819E007680146974202D9AD
:10FD0000BA1A026014E0C1F800C0D1F80C80D21B0E
:10FD1000C8693B448A46B8F1000F07D0F71827F0AE
:10FD20007F47C1E90178CAF81C500D460028E3D18D
:10FD3000E0602846FEF744FE04E02846FEF740FE59
:10FD400000B917B15846FEF7EBFB84F80490BDE804
:10FD5000F88F00006C2100200D4B10B5D96831B12F
:10FD600002680C68A24204D8A21A0A60C161D86075
:10FD700010BD0B4603E00B46C969121B21B10C688C
:10FD80009442F8D3A41A0C600260C161D86110BD1E
:10FD90006C2100202DE9F0411D4DEC68002C35D080
:10FDA0001C48002700682969B846401A20F07F46A1
:10FDB0002068B04215D82246361A0744E469107C00
:10FDC00068B182F810806B6933B1D2E905019847B8
:10FDD00028B1FDF75DFB02E0D2E905108847002C51
:10FDE000E6D16978A878814206D1401CC0B2A870DB
:10FDF000022801D185F802800548A978183040F81A
:10FE00002170BDE8F0411420FCF706BEBDE8F0818A
:10FE10006C2100200415014010B50023074A04217D
:10FE20000F20FDF753FB08B1FDF732FBBDE8104092
:10FE3000034A01210348FDF737BB000038220020A8
:10FE4000C9F80100000F0200074810B5002240F673
:10FE500031010068FDF782FB002803D0BDE81040A7
:10FE6000FDF716BB10BD0000000F02002DE9F041A8
:10FE70000C46096840F20C60890001F1A041C1F80C
:10FE800000076168890001F1A041C1F800072068FE
:10FE9000FFF736FA6068FFF733FA216840F20D6029
:10FEA000890001F1A041C1F800076168890001F1F2
:10FEB000A041C1F800070420FCF78AFBDFF8588056
:10FEC00000250126A8F104072079D8F80010C140C8
:10FED00011F0010F02D0002D1BD00FE0207806FAA0
:10FEE00000F038600420FCF773FB2068FFF708FA85
:10FEF0000420FCF76DFB6D1C092DE5DB20798640A5
:10FF00003E600420FCF764FB6068BDE8F041FFF749
:10FF1000F7B9BDE8F0810000100500500178002914
:10FF200004D10279034801210AB101707047417080
:10FF300070470000202100201FB5094B0FCB8DE832
:10FF40000F0007480023074A69460838FFF736F9CB
:10FF500008B1FDF79DFA02480838FFF71FF91FBDE9
:10FF6000280F02001DFF0100034800210160016805
:10FF70000121016070470000FC3F00402DE9FC5F5B
:10FF8000002705461E4693460C463846C1F80471C4
:10FF9000C1F82471C1F81C71C1F8087185F8267088
:10FFA00085F82370012B0FD05FF00101C4F8001217
:10FFB000012121622160296841B140F28620A860B8
:10FFC000A868C4F8040314E00221EFE7804605F1B5
:10FFD000260A05F12309CDE900685B4652464946E9
:10FFE000204600F01DF80028F5D195F8230000B157
:10FFF00003273846BDE8FC9F30B51C78039D94422A
:020000040002F8
:1000000006D2095DC0F81C151878401C187005E070
:10001000012115B1C161002030BD4161012030BD19
:100020002DE9FF4F81B004460878DDF838909246FC
:100030000F46012803D09AF800204A4501D1012635
:1000400000E000264FF49271002530B1C4F824512D
:10005000C4F81C51C4F808514CE08B462046FFF709
:10006000B3F94FF0010820BB4FF48E712046FFF723
:10007000ABF988B1C4F81C5159462046FFF7A4F9E2
:10008000B8B90F98009053464A4620460499FFF7A6
:10009000B3FF002838D02DE04FF484712046FFF7DD
:1000A00093F938B3C4F8085159462046FFF78CF944
:1000B00030B1C4F82451C4F8148087F8008019E0E6
:1000C0009AF800304846049A5146834212D2D4F836
:1000D0001875D7540A78411E521CD2B28AF80020F3
:1000E0008A4203D10220C4F8000201E04A4501D04F
:1000F000C4F820805EB14FF482712046FFF764F9A6
:1001000028B1C4F80451002005B0BDE8F08F0120EB
:10011000FAE72DE9FC5F00260C9F984692460C46B4
:100120000546C1F80461C1F82461C1F81C61C1F839
:100130000861C1F8006285F8266080F8236001201C
:100140000862886005F126039B46424651462046D8
:100150000097FFF751FF286830B140F28620A86071
:10016000A868C4F804030FE005F12309CDE900876E
:1001700053465A4649462046FFF752FF0028F5D11C
:1001800095F8230000B103263046BDE8FC9FF8B582
:1001900004464FF0FF30C1F8080394F8240020B162
:1001A000A068C1F804031120F8BD43F38000401C8F
:1001B00084F82400180701D50620F8BDA36192E851
:1001C000610004F10C0787E86100907884F8200052
:1001D0005068E0615078C1F8880510780025012842
:1001E0000ED008B9980601D5012000E0002084F85F
:1001F00021000090937852682046FFF78AFF06E0BE
:1002000084F82150937852682046FFF7B7FE2168A2
:100210000029D2D184F82450F8BD0000064A0020FD
:10022000C2F81C010548838A8168C95C838A5B1C0B
:100230008382C2F81C15704700200040BC240020B7
:100240001FB500218DF8080005488DF80010826860
:1002500001928175D0E90012684690471FBD0000E9
:10026000BC2400202DE9FF413E4D4FF4007128468B
:10027000FFF7B4F801273C4C4FF40178002600B397
:100280004FF492712846FFF7A4F8D0B1C5F8246165
:10029000C5F80883A07E00B96F6002208DF80000C9
:1002A000D5F88004C5F880040390E07D8DF808003F
:1002B000E0680190E6752676D4E90012684690471A
:1002C00024E004212846FFF789F8F8B14FF484713F
:1002D0002846FFF77EF8C8B1FFF7F8F9E07D617EA8
:1002E000884213D1227E3AB1607EE168E2752269CC
:1002F000E2602676667607E0A07E00B96F60C5F8FA
:100300000883E675607EE168FFF7F8F94FF48E71B7
:100310002846FFF75EF858B1A18AA07D814202D23B
:10032000FFF77CFF04E0C5F81C6108B1FFF788FF08
:100330004FF4A2712846FFF74CF800280FD0C5F8FB
:100340004461A07E00B12F60E07D002807D0E675F3
:10035000607EE16804B0BDE8F041FFF7CFB9BDE8C9
:10036000FF81000000200040BC2400207FB5334CFA
:100370004FF492712046FFF737F8314D0026B0B1A7
:10038000C4F8246102208DF80000D4F88004C4F879
:1003900080040390D4F83C058DF80800E8680190CB
:1003A000EE752E76D5E90012684690471FE04FF4AF
:1003B00088712046FFF718F8C8B1C4F81061D4F866
:1003C0003C05E97DC0B2814211D12A7E5AB1E9686B
:1003D000D4F8003223F02003C4F80032EA752A6909
:1003E000EA602E7601E0EE75E968FFF787F94FF4D1
:1003F000A2712046FEF7F8FF50B1C4F84461E87DD1
:1004000030B1EE75D4F83C05E968C0B2FFF776F973
:100410004FF490712046FEF7E7FF00280CD0C4F897
:100420002061A87D002807D0D4F84C0504B0C0B2E4
:10043000BDE87040FFF704BF7FBD00000020004012
:10044000BC2400200870000A487002207047000099
:1004500070B5454D0024454AA87892B005285ED273
:10046000DFE800F0032D3D545A003F4D00202835B1
:10047000115C2B18401CC0B299701428F8D3FEF7F9
:100480001DFC4C20ADF838001720ADF83C000626C6
:10049000109538216846FCF78DF98DF800400EA8BC
:1004A0008DF80360099000216846FDF7EBFA08B16A
:1004B000FCF7EEFF12B0BDE87040FCF7CDBF2A4953
:1004C00000203F31135C0C18401CC0B2A3701028F0
:1004D000F8D3FEF7F3FB244814213F3013E0224BFE
:1004E000002161335C18505CE070FEF7BBF918B96D
:1004F000491CC9B21129F5D3091D6971FEF7DEFB4C
:10050000194869796130FCF77DFFD3E7FEF7D6FB28
:1005100015480E215330F6E7FEF7D0FBCAE7134823
:1005200018211830FCF746F910484FF4487118307C
:100530000470446004720182448295F9010077DFFF
:1005400038216846FCF736F902208DF800000120BA
:100550008DF8020006208DF803000420ADF810008D
:100560000148763005909EE7802000206824002016
:10057000EFF30580C005C00D13D0103840B200283D
:1005800006DA00F00F0000F1E02090F8140D03E00F
:1005900000F1E02090F800044009022803D006286A
:1005A00003D0022070470020704701207047427836
:1005B0008378521CD2B2934200D100220378934236
:1005C00001D1002070470A704168407800EB40007C
:1005D00001EBC00070472DE9FC411646DDE90854E7
:1005E000CDE900541F468046022200F00CF8002896
:1005F00007D1CDE900543B4610223146404600F079
:1006000002F8BDE8FC812DE9FC5F0026DDE90C4B1A
:10061000994692468E4680462788354630E0D8F87F
:100620000400002200EB850069460068019001A8E3
:1006300065DF002830D19DF8000050451FD10EB174
:10064000002100E00221228808441118594522D8CF
:1006500046B9521C90B2208009F800E02088401C66
:1006600020800126218801A801EB0902694665DF87
:10067000002811D120889DF80010084420806D1CAE
:10068000B8F80000A842CADC56B12088C01B401E42
:1006900080B2FF2802D90C20BDE8FC9F09F80700B2
:1006A0000020F9E710B591EA030F48BF83F000433B
:1006B00000F13E83841A71EB030C05D2121943EB4F
:1006C0000C03001B61EB0C01DFF824E14FEA11542D
:1006D000A4EB135C1EEA430F18BF9EEA445F73D07D
:1006E00023EA0E03DCF1200E21EA045143F48013C7
:1006F00032D322FA0CFE10EB0E0023FA0CFE41EB73
:100700000E01CCF1200E03FA0EFE10EB0E0051F19B
:100710000001B1F5801FCCF1200E32D201EB045163
:1007200012FA0EF2BDE8104058BF7047401C38BFA7
:100730005FEA420218BF7047002814BF20F0010092
:1007400041F100014FEA410313F5001F38BF704724
:10075000A1F1C04100F0DEBA012A43EB0302ACF183
:10076000200CDCF11F0E32BF4FF0000E23FA0CF309
:1007700010EB030041EB0451B4EB115FD0D0A1EBBF
:10078000045101F5801149085FEA300001EB045182
:100790000ED350F1000038BF12FA0EFE08D1BDE8AA
:1007A0001040C9E7401C38BF5FEA4202CAD1C3E724
:1007B000BDE810404FEA410313F5001F38BF7047F2
:1007C000A1F1C04100F0A6BA9EEA445F08D011EA48
:1007D0005E0FBDE8104004BF01F0004100207047EB
:1007E000BDE8104070B500F047FA00BF64FBBE3EA4
:1007F0000000E0FF2DE9C04130B4DFF8A0C23CEAC0
:10080000111418BF3CEA131400F0EC8081EA0305D0
:100810001CEA111444EAD57418BF1CEA131500F041
:10082000C780A4EB05044FF0004545EAC12145EA25
:10083000C32341EA505143EA525304F17F74994271
:1008400004F500344FEAC0204FEAC22208BF9042AC
:1008500000F09C804FEA13650FF24016765D4FEA78
:10086000134506FB05F7C7F1807706FB07F74FEA4C
:10087000D737A7FB03687642C8F58038A7FB06CEBA
:1008800038BFA8F1010807FB08E64FF0000EA6FBF1
:10089000028CE6FB03CEDCF1000CCEF1004E38BF3B
:1008A000AEF1010EA6FB0C584FF000074FF000050B
:1008B000E6FB0E87A1FB08C6A0FB07CE16EB0E06D3
:1008C00045F10005E1FB076515F1E04E7EBFA4F59B
:1008D00080345FEA46066D4116F1800745F1000558
:1008E0004FEA17274FEA066647EA0567A6F1DE4694
:1008F000B6F1805F4FEA15251FD9384624F0010C68
:1009000005EBC471BCF1FE6F01EB0C1102D8F0BC19
:10091000BDE8008124425CBF01F5801E9EEAC47FD1
:1009200002D4F0BCBDE80081244238D4F0BCA1F16F
:10093000C041BDE8004100F0EDB94FEAD22242EAE1
:1009400043524FEAD323A7FB02864FEAD02040EA66
:10095000415007FB03661EEA0E0F4FEAD12105FB4B
:10096000026658BFA6EB0056B6EB00564FEA520E91
:100970004EEAC37E18EB0E0E56EB530EBDD518EBA8
:1009800002085E417F1C55F10005B6E74FF4801563
:100990004FF000074FF000064FF00008ADE7F0BC45
:1009A0004FF0000001F1C04101F00041BDE80081BD
:1009B00011EA0C1F0CEA131500D00CE013EA0C1F0F
:1009C00000F025804FF00000F0BC81EA030101F047
:1009D0000041BDE80081F0BCBDE8004181EA0301AF
:1009E00000F098B9F0BCBDE8004170B500F044F9E2
:1009F000097EFC3E00F007B881EA03014FF00000D9
:100A000001F00041704781EA030100F083B9F0BCB6
:100A1000BDE800414FF0000021497047FFFDFBF9A0
:100A2000F7F5F4F2F0EEEDEBE9E8E6E4E3E1E0DE21
:100A3000DDDBDAD8D7D5D4D3D1D0CFCDCCCBCAC893
:100A4000C7C6C5C4C2C1C0BFBEBDBCBBBAB9B8B7BA
:100A5000B6B5B4B3B2B1B0AFAEADACABAAA9A8A8AD
:100A6000A7A6A5A4A3A3A2A1A09F9F9E9D9C9C9B7B
:100A70009A99999897979695959493939291919026
:100A80008F8F8E8E8D8C8C8B8B8A898988888787B7
:100A90008685858484838382828181800000FF072C
:100AA0000000F87F4FEA1153A3F58063D3F11E03D2
:100AB000A8BFD3F1200C08DB4FF0004242EAC1226C
:100AC00052EA505232FA03F0704709420BD4102B0D
:100AD000C4BF0020704703F5787CBCF1FF3F05D010
:100AE0004FF0FF3070474FF00000704770B500F0D6
:100AF000C3F800BF4992248000207047F0E7B0FAA5
:100B000080F310FA03F10AD0C3F11D0303F58063EB
:100B10004FEA41504FEA035202EBD12170474FF0A8
:100B200000007047DFF848C170B51CEA111E1EBFF7
:100B30001CEA13159EEA0C0F95EA0C0F00F06F806B
:100B400081EA030423EA4C134EEAD47E21EA4C11D5
:100B500041F4801143F48013AE44A1FB024CA0FB8E
:100B60000365AEF17F7E361955EB0C05A1FB034CF6
:100B70004CF10003A0FB021C16EB0C06654153F17F
:100B80000003094218BF46F0010613F4007F0BD1A1
:100B90004FEA03314FEA0530340341EA155140EA88
:100BA00016506FF003020AE04FEAC3214FEAC52056
:100BB000F40241EA555140EA56506FF0020202EB4E
:100BC0002E4201EB025585EACE710AD05FEA440C51
:100BD00018BF24F0004450F1000041F1000120EA68
:100BE000D47040F2FE7C624500D270BDA84214BFB2
:100BF0004FF080444FF04044002E08BF0024BEF167
:100C0000806FA8BFA1F1C041BDE8704080F2828032
:100C10004FF0000001F1C04101F0004170479EEA31
:100C20000C0F0CEA131518BF95EA0C0F06D04FF005
:100C3000000081EA030E0EF0004170BD00F01CF8C8
:100C40008900013E00F007B800F009B84FEA430CF4
:100C50005FEA5C5C08D081EA030100F05BB84FEA10
:100C6000410C5FEA5C5CF6D14FF00000014970472F
:100C70000000FF070000F87F0EF1020E2EF0030EB9
:100C80005EF8046B364205D4012A43EB030515F5E3
:100C9000001F12D8012841EB010C1CF5001F0CD8D5
:100CA0000ED14FEAD17C15F5001F0CEB4C0C0CF16A
:100CB000020C08BF4CEBD37C04E04FF0080C01E0C1
:100CC0004FEAD37C0CEB4C0526FA05F606F0070636
:100CD000B6F1040C06D20EEB860CBDE870404CF069
:100CE000010C6047DFE80CF0090B02024FF00041F5
:100CF0004FF00000A1F5002170BD194610460128F3
:100D000051EB010418BFD4F5001484BF002001F09A
:100D1000004170BD0808A0F500114FEA310170478D
:100D200010B591EA030F48BF83F000433FF5C2AC12
:100D3000841A71EB030C07D212198CF0004C43EBB0
:100D40000C03001B61EB0C01DFF8A4E14FEA115426
:100D5000A4EB135C1EEA430F18BF9EEA445F00F049
:100D6000B08023EA6E03524221EA0451C3EB6E03C2
:100D700038BF5B1EDCF1200E25D322FA0CFE10EBEF
:100D80000E0043FA0CFE41EB0E01CCF1200E03FAEB
:100D90000EFE10EB0E0051F10001CCF1200E29D413
:100DA00012FA0EF201EB0451BDE8104058BF704733
:100DB000401C1CBFB2F1004F704700280CBF491CFB
:100DC00020F00100704712EB020E43EB030218BF44
:100DD0004FF0010E4EEA4202ACF1200CDCF11E0E87
:100DE00054D943FA0CFE10EB0E0051F1FF31CCF157
:100DF0001E0ED5D50EF1010E12FA0EFE404141EB4A
:100E0000010101EB445C5FEA5C5C10D910EBDE7021
:100E100001EB045138BFBEF1004FBDE8104018BFD0
:100E2000704700280CBF491C20F00100704730D2E9
:100E30004FEAD42C11F5001124F400641BD0B1FA50
:100E400081F20B3AA41AA41ED2F12003914030FA89
:100E500003F31943904001EBCC71002C01EB0451DA
:100E6000BDE81040A8BF704701F1C0414FF000003D
:100E700001F000417047B0FA80F310FA03F100D19D
:100E800010BDE41A173C4805C90AE4E701EB045118
:100E900010BD491001EB0451BDE810404FEA30008D
:100EA00002E04FF0000170474A0008BF0042F8D04E
:100EB000B2F5001F28BF704701F000414FF000005D
:100EC00070479EEA445F07D011EA5E0FBDE810400C
:100ED00004BF002100207047BDE8104070B5FFF747
:100EE000CBFE00BF40DFF63E83F000411046704766
:100EF0000000E0FF4FF04070E1EE100A7047000084
:100F0000D0210020010000073E0F01000200000078
:100F100020150000091801000F1801000A1801002F
:100F200000300040000000000E0000000D00000036
:100F3000000098010600000023D1BCEA5F78231569
:100F4000DEEF12120000000023D1BCEA5F78231507
:100F5000DEEF12120000000000000000010000009F
:100F600000009801060000000100000000000000E1
:100F70000000000001000600980F02008020002001
:100F8000500100003CC40100E00F0200D02100200D
:100F9000A846000098C401002123FF01051E400659
:100FA000FFFFDC0215AA011201140201EE2012EE6D
:100FB000AAAABBBBCCCCDDDDEEEE01020304050624
:100FC000222093F0F0031310EE14201501140918D9
:100FD000011A0F041A0A0401BE8202040090D00311
:040000050001C40131
:00000001FF
